:020000040000FA
:1000000002005000000080FB120080B900030200D3
:100010003A900101AA82AB839000837837790180FE
:1000200015E493A3AC82AD838A828B83F0A3AA826A
:10003000AB838C828D83D8E9D9E77582DA75830624
:1000400074001200627582037583007400120062EE
:1000500075D0007581BF751001751101759F000283
:100060000008C09FF59FE473D09F22D083D082C048
:100070009FE493C0E0740193C0E0740293F59F2263
:100080007901226E616E6A696E6720676562692018
:100090006469616E7A6900676562696469616E7A34
:1000A000692E74616F62616F2E636F6D004343321E
:1000B000353330424F4152440012006B8803001226
:1000C000006BBD030012006BE8030012006BF70326
:1000D0000012006B33040012006B58040012006B16
:1000E000BA040012006B5B050012006BA40500123D
:1000F000006B5C060012006B8506002510C582C0EF
:10010000E0E51134FFC583C0E0E510C3958224F813
:1001100010AF088583118582108008858311858240
:1001200010D2AFCEF0A3E520F0A37808E608F0A344
:10013000DEFAEFF0A3E58124FAF8E608F0A3E6087A
:10014000F0A3E608F0A30808E608F0A3E608F0A389
:1001500015811581D0E0FED0E0F81581158115815B
:10016000E8C0E0EEC0E022851183851082E0A3FEA6
:10017000E0A3F5207808E0A3F608DFFAE0A3FFE0AB
:10018000A3C0E0E0A3C0E0E0A3C0E0E0A3C0E0E0E3
:10019000A3C0E010AF088582108583118008858296
:1001A00010858311D2AFD083D08202006800000096
:1001B000000000004F00000007000700147F147FBC
:1001C00014242A7F2A1223130864623649552250C8
:1001D0000005070000001C2241000041221C001401
:1001E000083E081408083E080800503000000808BF
:1001F000080808006060000020100804023E514911
:10020000453E00427F400042615149462141454BF5
:10021000311814127F1027454545393C4A49493069
:1002200001710905033649494936064949291E0025
:10023000363600000056360000081422410014141F
:10024000141414004122140802015109063249799C
:10025000413E7E1111117E7F494949363E4141415F
:10026000227F4141221C7F494949417F09090901F7
:100270003E4149497A7F0808087F00417F410020BC
:1002800040413F017F081422417F404040407F02AF
:100290000C027F7F0408107F3E4141413E7F0909E7
:1002A00009063E4151215E7F0919294646494949BF
:1002B0003101017F01013F4040403F1F2040201F8E
:1002C0003F4038403F631408146307087008076113
:1002D00051494543007F414100020408102000417C
:1002E000417F0004020102044040404040010204FA
:1002F000000020545454787F4848483038444444DF
:1003000044304848487F385454545800087E090205
:10031000485454543C7F0808087000007A000020BC
:1003200040403D007F2028440000417F40007C0485
:1003300038047C7C0804047838444444387C141421
:100340001408081414147C7C0804040848545454F9
:100350002404043F44243C4040403C1C2040201CDA
:100360003C4030403C4428102844044830080444B1
:1003700064544C44083641410000007700000041BD
:100380004136080402020201802000000000000043
:10039000000000000000000000000000000000005D
:1003A00000000000000000000000EAF8EBF9E8247B
:1003B000FFFAE934FFFBE84970D0020068C082C050
:1003C000837800790080118A828B83A3AA82AB8311
:1003D000E82401F8E93400F98A828B83E070E8E8C8
:1003E000F9D083D08202006853F3FE43FD0153F439
:1003F0009B43FE6C02006874F71200FBE9FFC29594
:10040000C2967E008017C2807A017B001200B9D2AA
:10041000927A017B001200B9EFC333FF0EEEC39452
:1004200008500BC292EFA2E750DCD28080DA7F0145
:10043000020167C295D29678008009C280D292E903
:10044000C333F908E8C39408500BC292E9A2E750FD
:10045000EAD28080E802006874F61200FB7E007F1A
:1004600000802979001200D1E5082401F508E5098A
:100470003400F509C3E5089484E5099400A2D26527
:10048000D03340DFEE2401FEEF3400FFC3EE9409C9
:10049000EF9400A2D265D033501BC295EE24B0F980
:1004A0001200CB79101200CB79001200CB75080036
:1004B00075090080BF7F02020167C082C0837A1481
:1004C0007B001200B91200C579E21200CB7A0F7BD3
:1004D000001200B9792C1200CB7A0F7B001200B900
:1004E000792E1200CB7A0F7B001200B9792F1200FF
:1004F000CB7A0F7B001200B979231200CB7A0F7BE5
:10050000001200B979811200CB7A0F7B001200B97A
:10051000791F1200CB7A0F7B001200B979A112006B
:10052000CB7A0F7B001200B979C81200CB7A0F7B0F
:10053000001200B979A01200CB7A0F7B001200B92B
:1005400079401200CB7A0F7B001200B979AF12000C
:10055000CB1200D7D083D08202006874F41200FB63
:10056000E9FF8A088F0985080AE50AC4540FF50BCC
:10057000740F550AFE74B02509F91200CB7A0F7B6F
:10058000001200B97410250BF91200CB7A0F7B0012
:100590001200B9EEF91200CB7A0F7B001200B97F7E
:1005A0000402016774F31200FB890B8A0A8B0CE5C5
:1005B0000CC39420C3945E5072850C08750900E545
:1005C0000824E0F508E50934FFF509AA0AA90B1289
:1005D00000E37E007F008038A808A909E875F005CF
:1005E000A4C8AAF075F000A42AFA75F005E509A4DC
:1005F0002AF974AD28F8740139F9E82EF582E93F3B
:10060000F583E493F91200D1EE2401FEEF3400FFEC
:10061000C3EE9405EF9400A2D265D03340BA7900BE
:100620001200D17406250AF50A802CE50C7028AA60
:100630000AA90B1200E37E007F00800D79001200F2
:10064000D1EE2401FEEF3400FFC3EE9405EF9400D9
:10065000A2D265D03340E57F0502016774F712002E
:10066000FBE9FF8A08EBFE75F006E508A42401FA11
:1006700074FF2FF9E508C394165005EEFB1200E94C
:100680007F0102016774F51200FB8909EAFEEBFFA6
:10069000EEFAEFFB1200BFE9F50A75080080188E2C
:1006A000828F83E0FBAA08A9091200EF8E828F8354
:1006B000A3AE82AF830508E508C3950A40E1850A29
:1006C00008800B7B00AA08A9091200EF0508E508BD
:1006D000C3941540EE7F030201671200DD7A017BAF
:1006E0000179011200F57A157B0179031200F57A80
:0B06F0002B7B0179051200F502006869
:0400000500000050A7
:00000001FF
